:020000040800F2
:10000000802C002041020008CB300008D32B0008D0
:10001000C930000861150008A5360008000000007E
:10002000000000000000000000000000A90100081E
:100030005116000800000000ED010008CD31000855
:100040005B0200085B0200085B0200085B0200081C
:100050005B0200085B0200087D1700088317000898
:100060005B0200085B0200085B0200085B020008FC
:100070005B0200085B0200085B0200085B020008EC
:100080005B0200085B0200085B0200085B020008DC
:100090005B0200085B0200085B0200085B020008CC
:1000A0005B0200085B0200085B0200085B020008BC
:1000B000593200085B0200085B0200085B0200087E
:1000C0005B0200085B0200085B0200085B0200089C
:1000D0005B020008993600085B0200085B0200081A
:1000E0005B0200085B0200085B02000800F002F8F7
:1000F00000F04AF80AA090E8000C82448344AAF178
:100100000107DA4501D100F03FF8AFF2090EBAE875
:100110000F0013F0010F18BFFB1A43F0010318473B
:10012000B04F0000D04F0000103A24BF78C878C10B
:10013000FAD8520724BF30C830C144BF04680C60ED
:10014000704700000023002400250026103A28BF35
:1001500078C1FBD8520728BF30C148BF0B60704739
:10016000662904F0F786642900F09E80002070471D
:100170001FB500F0A3FC04000020002104F0FAFCED
:10018000E0601FBD10B510BD00F098FD1146FFF7EF
:10019000EFFF03F0B9FA00F0B6FD03B4FFF7F2FF8A
:1001A00003BC00F0F9FD0000224B19680868B0E8B4
:1001B000F00F80F30988BFF36F8F4FF0000080F3DA
:1001C00011884EF00D0E70470000000006480068D0
:1001D000006880F3088862B661B6BFF34F8FBFF343
:1001E0006F8F00DF00BF00BF08ED00E0EFF3098074
:1001F000BFF36F8F0F4B1A6820E9F00F106008B53E
:100200004FF0500080F31188BFF34F8FBFF36F8F13
:1002100003F0AEFF4FF0000080F31188BDE8084006
:1002200019680868B0E8F00F80F30988BFF36F8F92
:10023000704700BF34000020EFF3058070470000D6
:100240000948804709480047FEE7FEE7FEE7FEE76A
:10025000FEE7FEE7FEE7FEE7FEE7FEE704480549A6
:10026000054A064B7047000057320008ED000008B1
:1002700080260020802C002080280020802800205C
:100280000FB41CB5074B06AA7B446946009005983D
:1002900000F0FBFB0020694600F00AFC1CBC5DF886
:1002A00014FB0000250800002DE9F041064600245B
:1002B00010687529314616A510D0AFF300800028CC
:1002C00002DA404213A507E031688A0701D512A57A
:1002D00002E0490704D511A5012401E0AFF3008035
:1002E00000210A2206F1240709E0B0FBF2FCB0FB72
:1002F000F2F302FB1C00303078541846491C0028E9
:10030000F3D123462A463046BDE8F04100F04FB90C
:10031000000000002D0000002B0000002000000065
:100320002DE9F0474FF0000A89460446C0F820A0A6
:100330002046E1688847002876D0252806D0D4E9F1
:1003400001219047206A401C2062F1E7E1682046C5
:1003500000258847C4F81CA006460027C4F818A04A
:100360002A2E09D0304603F0C2F938B304EB8708CF
:10037000303EC8F8186019E059F8041B204604EB19
:1003800087029161E1688847012F064618D1E0692C
:10039000002820DA25F020051DE0D8F8180000EB31
:1003A000800006EB40003038C8F818002046E168AD
:1003B0008847064603F09BF90028EED1012F0AD0AA
:1003C0002E2E08D12046E16888477F1C0646022F62
:1003D00045F02005C4DBA069002803DA404245F05F
:1003E0000105A061E80701D025F01005B6B1A6F11E
:1003F0004100192802D8203645F400654A463146A6
:10040000204625604D46FFF7ABFE58B1012806D0C7
:10041000ED1D25F0070000F1080989E704E005F16A
:10042000040985E730468AE7206ABDE8F08710B501
:10043000431C02E010F8011B71B18107FAD14FF0A3
:10044000013202C88C1A8C4314EAC211F9D0C01AC6
:100450000A0603D0C01E10BDC01A10BD0A0401D088
:10046000801E10BD0902FCD0401E10BD032A40F2C0
:10047000308010F0030C00F0158011F8013BBCF146
:10048000020F624498BF11F801CB00F8013B38BF5E
:1004900011F8013BA2F1040298BF00F801CB38BF6C
:1004A00000F8013B11F0030300F02580083AC0F08A
:1004B000088051F8043B083A51F804CBA0E8081032
:1004C000F5E7121D5CBF51F8043B40F8043BAFF365
:1004D0000080D20724BF11F8013B11F801CB48BFBF
:1004E00011F8012B24BF00F8013B00F801CB48BFF5
:1004F00000F8012B704710B5203AC0F00B80B1E82E
:100500001850203AA0E81850B1E81850A0E8185048
:10051000BFF4F5AF5FEA027C24BFB1E81850A0E851
:10052000185044BF18C918C0BDE810405FEA827C6B
:1005300024BF51F8043B40F8043B08BF7047D20782
:1005400028BF31F8023B48BF11F8012B28BF20F823
:10055000023B48BF00F8012B70474FF0000200B586
:10056000134694469646203922BFA0E80C50A0E8D6
:100570000C50B1F12001BFF4F7AF090728BFA0E884
:100580000C5048BF0CC05DF804EB890028BF40F850
:10059000042B08BF704748BF20F8022B11F0804F92
:1005A00018BF00F8012B70477047704770472DE95E
:1005B000F0470D4699469246044600F1240801682A
:1005C000880604D5E06921F01001216000E00120D7
:1005D000A84201DD471B00E00027A1697A1902EB60
:1005E0000900081AA0612078C00602D42046AFF3A3
:1005F0000080002608E0D4E901211AF8060090479F
:10060000206A401C761C20624E45F4DB2078C00630
:100610000AD52046AFF3008006E0D4E9012130205E
:100620009047206A401C2062381EA7F10107F4DCC5
:1006300007E0D4E9012118F805009047206A401C22
:100640002062281EA5F10105F3DC2046AFF30080EF
:100650002078000602D50220BDE8F0870120FBE7E4
:1006600070472DE9FF4F0C461E464FF0FF378BB009
:10067000D2E90001DDF860800A908A46C1F30A558C
:1006800005B93D46002108464FF00000BAF1000FC1
:1006900000F4400005DA00EB80004FF4400101EA6D
:1006A00050004FEA9059B9F1010F00DDB9460A98A0
:1006B00050EA4A000ED044F61050A5F2FF354543EB
:1006C0002F14B8F1000F1ED07542291E1EDDC9F18E
:1006D00000021CE0B8F1010F4FF0000001D0302102
:1006E00003E0F24305E02154401CB042FBDB3046FE
:1006F0000022002121540B99C1F80880C1E9002093
:100700000FB0BDE8F08FBD1B6D1CDEE74A4600DA76
:10071000694206A800F05CFA06AB93E8070003AB59
:1007200083E8070050460A9900F03DFB8DE807007A
:10073000A0F500501F3800900398002D0ADD42F20A
:100740001F014A460844002303A90390684600F0AD
:10075000A6FD09E0A0F500504A461F38002303A972
:100760000390684600F0B0FD8DE807000004000C1F
:1007700003D04FF0FF30410800E01046B8F1000F01
:1007800003D00022009215461EE0751E05D400F02D
:1007900099F9303262556D1EF9D5B34601220843EE
:1007A00002D000227F1C04E02078302801D10022F2
:1007B0007F1E002A099784D01DE0112D07DA00F072
:1007C00081F9303262556D1C50EA0102F5D10843BF
:1007D00002D00098C8B10EE00021681E05E0235C3D
:1007E000625C63542254401E491C8142F7DBAB46D5
:1007F000A81B401E0990002004F80B000B98099AD2
:10080000C0F80880C0E9002B7AE711264FF00008F5
:1008100057E72DE9F04F88460446D21D22F0070124
:1008200091B0D1E90001CDE90A0102F03CFF024696
:100830000B98C00F01D02D2007E02068810701D55B
:100840002B2002E0202101EAC000032A099001D0F8
:10085000072A05DB03464146204600F079F90BE103
:100860002078800601D5E06900E00620B8F1650F28
:10087000814606D0B8F1660F18D0B8F1670F70D175
:1008800031E00020B9F1110F009001DB112301E0EC
:1008900009F101030AAA01A90CA8FFF7E2FEDDE9AC
:1008A0000C70002609F10105834647E001204B4604
:1008B00000904FF000470AAA01A90CA8FFF7D1FE4B
:1008C000DDE90DB00C995D46002610B909F1010073
:1008D0000D18B9EB050003D4C0F1FF3609F101058D
:1008E000A5EB09002BE0B9F1010F01DA4FF0010986
:1008F0000020B9F1110F0090484601DD112300E0FE
:1009000003460AAA01A90CA8FFF7ABFEDDE90C70AB
:100910004D4600268346207800070AD4AB4500DA0E
:100920005D4601A8012D04DD411911F8011C302993
:1009300007D04F4502DA17F1040F04DA012082468E
:100940000FE06D1EEEE7002F02DCED1B3E4403E0DE
:10095000781CA84200DD7D1CB81B00F1010A4FF095
:1009600000472078000703D4AA4501DB4FF0FF3A87
:100970000021B7F1004F0DF143088DF8431024D04A
:1009800002202B23002F01DA7F422D230A21021E91
:10099000A0F1010000DC5FB197FBF1FC97FBF1F2E5
:1009A00001FB1C7C17460CF1300C08F801CDEEE77A
:1009B000A8F1010003702188090501D5452100E057
:1009C0006521A0F1010800F8011C09980FA9A1EB0D
:1009D0000807FF1D00B10120411901EBEA70A16970
:1009E0003844081A401EA0612078C00602D4204670
:1009F000AFF30080099828B1D4E901219047206A1B
:100A0000401C20622078C00622D52046AFF300802B
:100A10001EE0002E04DBB34502DD01A8805D00E08E
:100A20003020D4E901219047206A401C2062761CC6
:100A3000AAF101005FEA000A0AD100F03FF8C0689D
:100A40000168405CD4E901219047206A401C206283
:100A5000281EA5F10105DCDC07E0D4E9012118F826
:100A6000010B9047206A401C2062381EA7F1010745
:100A7000F3DC2046AFF30080032011B041E6000014
:100A800001694A1C02610878704700B58FB0CDE952
:100A900001310021059105497944CDE90310114642
:100AA0006846FFF73DFC0FB000BD0000E5FFFFFF0B
:100AB0000A6802F8010B0A6070470000004870479E
:100AC0004026002030B5B0F10A024FEA900E71F1D5
:100AD00000034EEA817EB0EB0E0061EB91014FEA1C
:100AE000101E4EEA017E10EB0E0041EB11114FEA91
:100AF000102E4EEA016E10EB0E0041EB11214FEA71
:100B0000104E4EEA014E10EB0E0041EB1141401821
:100B100041F100014FEAD00040EA41704FEAD101B3
:100B200010EB80054FEA810444EA907444EB010421
:100B30006D1944EB0404521BA3414FF0000348BF5E
:100B40000A3200D530BD401C41F1000130BD00002B
:100B50002DE9F0411F46044603260168072A01F4E7
:100B6000006004DB08B116A505E016A503E008B196
:100B700015A500E015A521F010002060A069C01E99
:100B8000A0610FB1401EA0612046AFF300804FB1BD
:100B9000D4E9012138469047206A401C2062C01CDD
:100BA000206206E0206AFAE7D4E9012115F8010B7A
:100BB0009047761EF8D22046AFF30080BDE8F08162
:100BC0004E414E006E616E00494E4600696E6600F1
:100BD0002DE9F047814616468AB0354878440DC85D
:100BE0008DE80D0032487844801C03AC0DC884E8C1
:100BF0000D0041F69B300844372190FBF1F290FB49
:100C0000F1F5A5F1800501FB12041B3C02D56442FD
:100C1000012000E00020DFF898A080460027FA4479
:100C2000AAF1BE0A0EE0E0070AD03246684607EB9A
:100C3000470101230AEB810100F046FB8DE8070024
:100C400064107F1C002CEED1194F7F44AE3F19E099
:100C5000E80715D007EB04100DF1180A90E80E0014
:100C60008AE80E00C068F04201D198190890324617
:100C7000012306A903A800F027FB03AB83E80700C4
:100C80006D10641C002DE3D14FF00103324669461C
:100C9000B8F1000F03A802D000F001FB01E000F062
:100CA00013FBC9E90001C9F808200AB0BDE8F087C4
:100CB000A044000000487047202600207546FFF73A
:100CC000F9FFAE4605006946534620F00700854609
:100CD00018B020B5FFF7C2FABDE820404FF000067B
:100CE0004FF000074FF000084FF0000B21F0070114
:100CF000AC46ACE8C009ACE8C009ACE8C009ACE857
:100D0000C0098D46704710B50446AFF300802046F9
:100D1000BDE81040FFF741BA4FF0013C50F8042BFA
:100D200051F8043B9A4221D1A2EB0C03934313EAFE
:100D3000CC1317D150F8042B51F8043B9A4215D12B
:100D4000A2EB0C03934313EACC130BD150F8042B02
:100D500051F8043B9A4209D1A2EB0C03934313EAE6
:100D6000CC13DBD04FF00000704700BFD01A01BA9F
:100D7000B1FA81F101F0180122FA01F0CB40C1F182
:100D80002001DBB2C0B2C01A2CFA01F3D11A914390
:100D900011EAC311E6D1704701491820ABBEFEE746
:100DA0002600020070475FEA400C08BF91F0000F78
:100DB0004FEA8C234FEAC12243EA51514FEA1C50BB
:100DC00018BF00F5F0404FEA300018BF41F0004175
:100DD0005FEA6C5C00F02980BCF1FF3F08BF40F087
:100DE00080407047130C06BF12044FF0100C4FF0F8
:100DF000000C130E04BF12020CF1080C130F04BFF9
:100E000012010CF1040C930F04BF92000CF1020CC0
:100E1000D30F04BF52000CF1010C11464FF0000239
:100E2000A0F11F00A0EB0C00704711F0004F08BFAD
:100E3000704731F000413FF4D5AF0B0C06BF0904F9
:100E40004FF0100C4FF0000C0B0E04BF09020CF118
:100E5000080C0B0F04BF09010CF1040C8B0F04BF2D
:100E600089000CF1020CCB0F04BF49000CF1010CFE
:100E7000CCF12003A0EB0C0022FA03F302FA0CF2EF
:100E800041EA030100F10100704720F07F4C80EA45
:100E9000030023F07F47ACEB070303F57C5300F01E
:100EA000004003F1FF032DE980494FEA154B09B4D7
:100EB0004FEA144325EA0B4E24EA03480FF20426B6
:100EC00006EB132749083E785FEA320203FB066708
:100ED000C7F5000707FB06F64FEA54374FEAD64638
:100EE00006F1020607FB066CCCF1005C4FEA1C47DA
:100EF0002CEA074C07FB06F40CFB06F504EB154641
:100F00004FEA961634BF00204FF000404FEAD13729
:100F100006FB07FC4FEA1C4C0CFB0BF7D21B03FB38
:100F20000CF761EB07010CFB0EF7B0EB074072EB1F
:100F300017420CFB08F734BFA2EB0742B2EB0742A3
:100F400061EB17414FEA0C444FEA910706FB07FC9F
:100F50004FEA1C4C0CFB0BF7B0EBC74072EB57325F
:100F600003FB0CF734BFA2EBC742B2EBC74261EB05
:100F700057310CFB0EF7B0EBC70072EB57720CFB4E
:100F800008F734BFA2EBC702B2EBC70261EB57719F
:100F9000039F4FEA816141EA921104EBCC044FEACE
:100FA000D1374FEA826206FB07FC42EA90124FEA11
:100FB00080604FEA1C4C0CFB0BF7D21B03FB0CF7B9
:100FC00061EB07010CFB0EF7B0EB074072EB174229
:100FD0000CFB08F734BFA2EB0742B2EB074261EB10
:100FE00017414FEA8C554FEA910704EB9C2406FB0E
:100FF00007FC4FEA1C4C0CFB0BF7B0EBC74072EB45
:10100000573203FB0CF734BFA2EBC742B2EBC74227
:1010100061EB57310CFB0EF7B0EBC70072EB577268
:101020000CFB08F734BFA2EBC702B2EBC70261EBBF
:10103000577115EB4C254FEA816141EA92114FEA55
:1010400082624FEAD13742EA901206FB07FC44F174
:1010500000044FEA80604FEA1C4C0CFB0BF7D21BDC
:1010600003FB0CF761EB07010CFB0EF7B0EB07403D
:1010700072EB17420CFB08F734BFA2EB0742B2EB4E
:10108000074261EB174115EB1C154FEA813141EA2C
:1010900092414FEA823242EA90424FEA80304FEA70
:1010A0000C7644F1000448EA03434EEA0B484FF043
:1010B000000EB2EB080C71EB030724BF6246394601
:1010C0004EEB0E0E4FF0000B0018524149414BEB16
:1010D0000B0BB2EB080C71EB03077BF1000B24BF89
:1010E000624639464EEB0E0E4FF0000B001852418F
:1010F00049414BEB0B0BB2EB080C71EB03077BF197
:10110000000B24BF624639464EEB0E0E51EA020731
:1011100018BF46F0010616EB0E7655F1000254F1A9
:10112000000103D5BDE88901BDE80088BDE889015B
:10113000BDE80048B619524141EB0101A3F101039A
:10114000704780807F7E7D7C7B7A79787776767534
:101150007473727171706F6E6E6D6C6C6B6A6A69AC
:101160006868676666656464636362616160605F46
:101170005F5E5E5D5D5C5C5B5B5A5A5959585857BF
:101180005756565555555454535352525251515027
:1011900050504F4F4F4E4E4D4D4D4C4C4C4B4B4B7A
:1011A0004A4A4A49494948484847474747464646C0
:1011B00045454544444444434343434242424241FB
:1011C0004141002B9C4630D477002BD01CB54FEA10
:1011D000370703B44FF010004FF01001BAF1000FC1
:1011E00006D0BCF1000FDCBF40F0080040F0080161
:1011F0004FF000000FBCBDE810400BF1010BBBF13C
:10120000010F08BF5FEA170722BF12F1010211F1B7
:1012100001014FF0004143F1000300F0004043EAB8
:1012200000007047F9D35708D0E746EA064613F1A5
:10123000400F4FEA16461FDD13F1200FDFBF1643A4
:101240000A46002120335B42BED0C3F1200746EAA4
:10125000064602FA07F74FEA164646EA0706C3F1C2
:10126000200722FA03F201FA07F721FA03F14FF0FF
:10127000000342EA0702A7E746EA020646EA0646F4
:101280004FEA164646EA0106BCBF46EA0646360C59
:101290004FF000034FF000024FF0000194E72DE9FA
:1012A000804C9A46934670B491E8380007C831EAFA
:1012B000400C48BF34EA430C03D5FFF7E6FDFFF7C7
:1012C00080FFF0BCBDE8008C2DE9804C9A46934627
:1012D00070B491E8380007C810F0804F08BF13F0D1
:1012E000804F03D100F005F8FFF76BFFF0BCBDE8BD
:1012F000008C20F07F4780EA030023F07F4C07EB4F
:101300000C03A3F57C5300F00040A3F1FE0392F020
:10131000000F00F0B38095F0000F00F077802DE90A
:1013200001494FEA11404FEA144621EA004800FB08
:1013300006FC24EA064708FB06F607FB08F800FB54
:1013400007F718EB06484CEB164C4FEA124B18EB1C
:1013500007484FEA15464CEB174022EA0B4E0BFBB1
:1013600006FC25EA06470EFB06F607FB0EFE0BFB06
:1013700007F71EEB064E4CEB164C4FF000061EEB2B
:10138000074E4CEB174B18EB0B0840F1000018EB25
:101390000E0B58EB000840F100008F1A4FF00001CF
:1013A0003CBFC943661B14BFB5EB040C00213CBF16
:1013B000C943F61B4FEA17444EEA8E0E27EA04454E
:1013C0004FEA1C4704FB07622CEA074C05FB07F7B2
:1013D0000CFB05F604FB0CFC16EB074642EB174230
:1013E00016EB0C4642EB1C421BEB060658EB0202C6
:1013F000414146EA9E0601D5BDE80189B619524130
:1014000041EB0101A3F10103BDE801894FEA144555
:101410004FEA114724EA054621EA074C05FB07F489
:1014200006FB07F70CFB06F105FB0CFC11EB074173
:1014300044EB17444FEA124711EB0C4144EB1C44B8
:1014400022EA074C05FB07F206FB07F70CFB06F642
:1014500005FB0CFC16EB074642EB174216EB0C465D
:1014600042EB1C456A1854F1000148BF7047B61999
:10147000524141EB0101A3F10103704795F0000FC8
:1014800037D04FEA11424FEA144721EA024624EAD4
:10149000074C02FB07F106FB07F70CFB06F402FB07
:1014A0000CFC14EB074441EB17414FEA154714EBD2
:1014B0000C4441EB1C4125EA074C02FB07F506FBF7
:1014C00007F70CFB06F602FB0CFC16EB074645EB98
:1014D000174516EB0C4645EB1C42121951F1000161
:1014E00048BF7047B619524141EB0101A3F1010316
:1014F00070474FEA14454FEA114724EA054621EAAE
:10150000074C05FB07F106FB07F70CFB06F24FF053
:10151000000605FB0CFC12EB074241EB174112EBF6
:101520000C4251EB1C4148BF7047921841EB01013E
:10153000A3F101037047000003B583B064230122C7
:1015400004A98DE80E0013460246A021034800F0CE
:101550007BFB052000F08AF905B000BDF4030020F4
:10156000FEE7C000401EFDD2704700002DE9F047A5
:1015700086B000258246009502204FF400540127D2
:10158000CDE90450314ECDE9024702A9019530461C
:1015900000F096F900222146304600F086FA12202B
:1015A00000F064F9CDE9047502A93046CDE90245A1
:1015B00000F086F92820FFF7D4FF2146304600F0DE
:1015C0006FFAE8BBE946B84600272146304600F0EE
:1015D00067FA0028F9D02820FFF7C3FF21463046DC
:1015E00000F05EFA012808D119F80510C7F10703C9
:1015F00008FA03F2114309F805102146304600F0BD
:101600004FFA0128F9D07F1CFFB2082FDDD36D1CE3
:10161000EDB2052DD8D39DF800109DF801009DF87E
:1016200003300A189DF8020003441A449DF8043060
:101630009A4209D18AF801108AF80000002000E0DF
:1016400002E006B0BDE8F0870120F8E70010014095
:1016500070470000154810B5B0F800110122014490
:10166000134801F049FA4FF47A74204600F0FEF86E
:10167000642307220FA10E4801F05AFA204600F019
:10168000F5F864230B220EA1094801F051FA60100D
:1016900000F0ECF8234626220DA1054801F048FA97
:1016A000BDE8104040F6B83000F0E0B89C000020E3
:1016B000A004002041542B5253540D0A0000000096
:1016C00041542B43574D4F44453D310D0A00000016
:1016D00041542B43574A41503D22574946495F4E9A
:1016E000414D45222C22574946495F50415353579B
:1016F0004F5244220D0A000000B5A1B009A168466E
:10170000FEF7BEFD6846FEF792FE82B24FF4FA7312
:1017100069460E4801F00CFA4FF47A7000F0A6F812
:1017200021B000BD41542B43495053544152543DC4
:1017300022544350222C223139322E3136382E3168
:101740002E31222C38300D0A00000000A0040020A9
:1017500010B5084CB4F80001215C204601F0E0FC13
:10176000B4F800010119BDE810400122024801F05F
:10177000C3B900009C000020A0040020012000F05C
:1017800093B8022000F090B872B6FEE710B590F85A
:1017900021100022022905D00421816380F8202035
:1017A000012010BD01680B6823F00E030B60016877
:1017B0000B6823F001030B6090F84030C46B0121EB
:1017C00001FA03F3636080F8211080F820201046AE
:1017D00010BD000010B590F821100024022903D09C
:1017E0000421816301243DE001680A6822F00E02B1
:1017F0000A6001680A6822F001020A601A4A016858
:10180000914201D1012121E0174A1432914201D1C4
:1018100010211BE0144A2832914201D1891515E0AC
:10182000114A3C32914201D189140FE00E4A5032E4
:10183000914202D14FF4803108E00B4A6432914268
:1018400002D14FF4801101E04FF08071064A083A4E
:101850005160012180F82110002180F82010416B97
:1018600001B18847204610BD0800024070B504460B
:1018700000F020F90546601C02D0044800780444BA
:1018800000F018F9401BA042FAD370BD28000020D8
:10189000012803D0022804D101F04CBC01490120E9
:1018A0000870704724000020044910B50A680242FD
:1018B00002D00860FFF7ECFF10BD000014040140E7
:1018C0002DE9F84FDFF8B8910024A9F1040B234665
:1018D0000F2709F1040AABF1040EC9E00125A54068
:1018E0002A40AA427DD1674ED1F804C0ACEB06086D
:1018F000B44532D014DCBCF1030F3AD009DCBCF1A2
:10190000000F2AD0BCF1010F1CD0BCF1020F31D165
:101910001DE0BCF1110F17D0BCF1120F2AD119E054
:10192000B8F5881F19D006DCB8F5803F15D0B8F59A
:10193000801F1FD111E0B8F5001F0ED0B8F5041FAD
:1019400018D10AE0CB6815E0CB681B1D12E0CB680C
:1019500008330FE0CB680C330CE08B682BB1012B04
:101960004FF0080303D0456104E0042302E0056161
:1019700000E00023FF2A01D8064601E000F104063A
:101980004FEA840501D9A5F12005D6F8008007FAB1
:1019900005FC28EA0C0803FA05F548EA0508C6F82C
:1019A00000804D68ED0062D5374DAE6946F0010606
:1019B000AE61AD6924F0030605F001050095334DD5
:1019C00006EB050CDCF80850A607360F07FA06F8F8
:1019D00025EA0805DFF8B880404503D14FF000083C
:1019E00017E044E0DFF8AC80404502D14FF0010839
:1019F0000FE0DFF8A480404502D14FF0020808E074
:101A0000DFF89880404502D14FF0030801E04FF025
:101A1000040808FA06F848EA0508CCF808804D687A
:101A2000D9F80060ED024D4601D5164300E096431B
:101A30002E604D68DAF80060AD02554601D51643B8
:101A400000E096432E604D68DBF80060AD035D4614
:101A500001D5164300E096432E604D68DEF8006025
:101A6000ED03754601D5164300E096432E60641CD5
:101A70000D682A46E5407FF431AFBDE8F88F0000DD
:101A80000804014000001110001002400000014055
:101A900000080140000C014000100140001401400A
:101AA0008068084000D0012070470AB1016170478A
:101AB0000904FBE701488068704700002800002007
:101AC00070B5040025D094F83D00002520B984F8B5
:101AD0003C50204600F050F9242084F83D00206856
:101AE000016821F0010101602068016841F40041B2
:101AF00001602068016821F40041016000F0EAFA09
:101B00004D4A6168914201D84C4900E04C498842F5
:101B100001D2012070BD4B492368B0FBF1F15E6832
:101B200026F03F060E435E606368934206D94FF489
:101B3000967359434FF47A73B1FBF3F12368491C50
:101B40001E6A26F03F06314319626168914210D83F
:101B50004900401EB0FBF1F2521CC2F30B02042AF2
:101B600001D2042022E0B0FBF1F0401CC0F30B00D6
:101B70001CE0A268F2B301EBC10303EB0116431EA4
:101B8000B3FBF6F35B1C43F480431B0549D092B3CF
:101B900001EBC10202EB0111401EB0FBF1F0401C51
:101BA000C0F30B0040F4804040F400402168CA6953
:101BB0004CF6FF739A431043C861D4E90710014300
:101BC0002068026822F0C00211430160D4E90301D9
:101BD00001432068826848F2FF339A4311438160D1
:101BE000D4E9050108432168CA6822F0FF021043C6
:101BF000C86001E00EE016E02068016841F00101D4
:101C000001602564202084F83D00256384F83E505F
:101C1000002070BD01EB4106431EB3FBF6F35B1CD5
:101C2000B3E70120C2E701EB4101401EB0FBF1F038
:101C3000401CC0F30B00B7E7A086010080841E00A3
:101C400000093D0040420F002DE9FF4F83B09A4646
:101C5000DDE9119793460446DDF84080FFF72AFF3F
:101C6000054694F83D0020287FD1192301224049E0
:101C70002046009501F046F8002876D194F83C0003
:101C8000012872D0012084F83C0020680168C9074F
:101C900003D1016841F0010101602068016821F46D
:101CA00000610160212084F83D00402084F83E005E
:101CB00000262664C4F82480A4F82A90608D20852C
:101CC0002C48E062CDE9007553465A4620460499F7
:101CD00000F098FF70B930E02A463946204601F0FE
:101CE000B7F858B1206C042804D12068016841F489
:101CF00000710160012007B0BDE8F08F606A2168C3
:101D000000780861606A401C6062218D491E89B2BA
:101D10002185628D521E628522685369DB435B0711
:101D20000BD469B100781061606A401C6062208D3C
:101D3000401E2085608D401E6085208D0028CBD1FF
:101D40002A463946204600F0B1FF0028CAD154F88F
:101D50003D0B016841F400710160202004F81E0968
:101D6000E67766770020C6E7FFE70220C3E70000BA
:101D7000020010000000FFFF10B586B000210091A6
:101D800001910291039100680F4988421AD10F4CCA
:101D9000A06940F00800A061A069694600F0080051
:101DA0000490C02000901220019003200390084866
:101DB000FFF786FDE06940F40010E061E06900F49F
:101DC0000010049006B010BD005400400010024006
:101DD000000C01400248816802781144816070471C
:101DE00028000020074810B5016841F0100101608B
:101DF000032000F0A7F80F2000F006F800F050F8DC
:101E0000002010BD0020024030B50546204887B0B4
:101E1000C16941F00101C161C06906A900F001007A
:101E2000009001A800F036F90498B8B100F052F91A
:101E3000400018494FF08042B0FBF1F11648491EAE
:101E40000260416040F2E7320021C0E90321816075
:101E5000816100F0A9FB040003D015E000F03AF91D
:101E6000E7E70D4800F0CEFB04000DD11C2000F088
:101E70003BF8102D07D2002229461C2000F042F822
:101E80000648056000E0012407B0204630BD000090
:101E90000010024040420F00E80400202C00002007
:101EA0000F4808B5816941F001018161816901F044
:101EB00001010091C16941F08051C161C0690022F6
:101EC00000F0805000900F21901E00F01BF8054894
:101ED000416821F0E06141F00071416008BD0000FF
:101EE0000010024000000140002809DB00F01F0242
:101EF000012191404009800000F1E020C0F800116C
:101F000070470000F0B40E4B1B680C46C3F302236D
:101F1000C3F10705042D00D90425191D072901D295
:101F2000002300E0DB1E012606FA05F1491E2140D0
:101F300099409E40761E16403143F0BC01F0C7BB6D
:101F40000CED00E0064900F0070208684FF6FF03B9
:101F5000184040EA0220034A10430860704700001E
:101F60000CED00E00000FA052DE9F0470F460500F2
:101F700061D0434E306800F00700B84209D23068A3
:101F800020F0070038433060306800F00700B842A6
:101F900051D128683B4C810712D5400703D56068B2
:101FA00040F4E06060602878000703D5606840F482
:101FB000605060606068A96820F0F00008436060CD
:101FC0002878C00728D06868012810D02168022826
:101FD00010D0890700292EDA616821F0030101433E
:101FE0006160FFF767FD804641F288390DE02168A6
:101FF0008903EFE78901EDE7FFF75CFDA0EB08013E
:10200000494502D90320BDE8F0876068696800F09F
:102010000C00B0EB810FEFD1306800F00700B84240
:102020000BD9306820F0070038433060306800F08A
:102030000700B84201D00120E5E72878400705D520
:102040006068E96820F4E060084360602878000771
:1020500006D56068296920F4605040EAC1006060DC
:1020600000F058F86168084AC1F30311515CC84098
:102070000649086006480068FFF7C6FE0020C2E770
:102080000020024000100240584F000808000020C5
:102090002C0000200F2202600C4A536803F0030357
:1020A0004360536803F0F0038360536803F4E06314
:1020B000C36052684FF4E06303EAD202026104484D
:1020C000006800F007000860704700000010024040
:1020D000002002400448054900684968044AC1F3E9
:1020E0000221515CC84070470800002000100240E7
:1020F000684F00080448054900684968044AC1F36C
:10210000C221515CC8407047080000200010024006
:10211000684F00080E4A51680E4801F00C03042B6A
:1021200011D0082B0FD10C48C1F38343C903C05C05
:102130000AD55168084AC1F34041921E515C054AD4
:102140005043B0FBF1F0704704494843704700002A
:102150000010024000127A00F24F000800093D0012
:102160002DE9F84F040070D02078C04DC00749D049
:102170006868C0F38100012807D06868C0F3810057
:10218000022809D16868C00306D52868800339D5BC
:1021900060680028E7D035E06068B0F5803F0BD07C
:1021A00010B1B0F5A02F11D0286820F4803028603D
:1021B000286820F4802002E0286840F480302860FD
:1021C000606890B1FFF776FC06460AE0286840F4A4
:1021D00080202860F0E700BFFFF76CFC801B6428BC
:1021E00073D828688003F7D50CE0FFF763FC064638
:1021F00005E000BFFFF75EFC801B6428F0D828686C
:102200008003F7D420789A4E80074FF001094FF0F1
:10221000000839D5686810F00C0F07D06868C0F363
:102220008100022809D16868C00306D428688007A5
:1022300014D52069012808D110E02069B0B1C6F892
:102240000090FFF737FC074605E00AE1FFF732FC94
:10225000C01B0228C4D828688007F7D528686169A0
:1022600020F0F80040EAC10028600DE0C6F80080C8
:10227000FFF720FC074604E0FFF71CFCC01B022808
:1022800023D828688007F7D4207800072CD5794810
:10229000A169D9B1C0F80090FFF70CFC074604E033
:1022A000FFF708FCC01B02280FD8686A8007F7D523
:1022B00071484FF4FA510068B0FBF1F0009000BF94
:1022C0000098411E0091FAD20EE080E0C0F8008034
:1022D000FFF7F0FB074604E0FFF7ECFBC01B02280A
:1022E00075D8686A8007F7D42078400760D5E86918
:1022F0000027C00008D4E86940F08050E861E86930
:10230000012700F0805000905C480168C90513D493
:102310000168834641F480710160FFF7CBFB824680
:1023200006E000BFFFF7C6FBA0EB0A0064284ED80A
:10233000DBF80000C005F5D5E06801280AD008B137
:10234000052813D0286A20F001002862286A20F0AE
:10235000040002E0286A40F001002862E06841F2CF
:10236000883B98B1FFF7A6FB82460BE0286A40F055
:1023700004002862EEE700BFFFF79CFBA0EB0A0118
:1023800059455AD8286A8007F6D50CE0FFF792FB2A
:10239000824605E0FFF78EFBA0EB0A0159454CD8B9
:1023A000286A8007F6D41FB1E86920F08050E86100
:1023B000E06988B36968C1F38101022944D0022829
:1023C000C6F8608004D0FFF775FB044638E034E0BF
:1023D000FFF770FB074604E0FFF76CFBC01B022809
:1023E0002BD828688001F7D4206AB0F5803F05D14A
:1023F0006868A16820F4003008436860D4E90801E7
:102400000843696821F4741108436860C6F8609055
:10241000FFF750FB044606E025E000BFFFF74AFB4C
:10242000001B022809D828688001F7D51BE000BFEF
:10243000FFF740FB001B022802D90320BDE8F88FFC
:1024400028688001F4D40EE00128F7D06868226A79
:1024500000F48031914204D1616A00F47010884226
:1024600001D00120EAE70020E8E700000010024068
:1024700000004242800442420800002000700040F8
:1024800070B5040009D0606A002540B1256165611E
:10249000A56294F8510040B10CE0012070BD606865
:1024A000B0F5827FF4D0E561F2E784F85050204621
:1024B00000F040F8022084F851002068016821F003
:1024C00040010160A088218900F4827001F4044178
:1024D0000843A18901F400610843217C01F0020155
:1024E0000843217D01F001010843218B01F40071B3
:1024F0000843217F01F03801084394F8201001F0CF
:1025000080010843218D01F40051084321680860CF
:10251000A069042101EA1040216848602068C1696F
:1025200021F40061C1616565012084F8510000203B
:1025300070BD000030B585B0002400940194029471
:10254000039400681449884223D11448816941F4F6
:1025500080518161816901F480510491816941F068
:102560000401816180690E4D00F004000490A020F8
:102570000090022001900320039069462846FFF74F
:102580009FF94020CDE90004694628460294FFF7F0
:1025900097F905B030BD0000003001400010024046
:1025A000000801407047704710B5040003D094F84C
:1025B0003D0010B107E0012010BD002084F83C0070
:1025C000204600F01EF8022084F83D00211D2068FE
:1025D00000F048FE012084F8460084F83E0084F8AC
:1025E0003F0084F8400084F8410084F8420084F8F9
:1025F000430084F8440084F8450084F83D0000203E
:1026000010BD704790F83D10012901D0012070479E
:10261000022180F83D100168CA6842F00102CA60D8
:1026200000680B49884208D0B0F1804F05D00949B5
:10263000884202D00849884204D1816801F007012C
:10264000062903D0016841F00101016000207047B4
:10265000002C0140000400400008004070472DE9B4
:10266000F04104460068C66805694FF00007A907F5
:1026700013D5B10711D5F91E01610120207720681B
:1026800080698007204602D0FFF7E8FF04E000F0F1
:102690007EF8204600F07CF82777680716D570078B
:1026A00014D521686FF004000861022020772068AB
:1026B000806910F4407F204602D0FFF7CFFF04E08E
:1026C00000F065F8204600F063F82777280715D555
:1026D000300713D521686FF00800086104202077C7
:1026E0002068C0698007204602D0FFF7B7FF04E0EA
:1026F00000F04DF8204600F04BF82777E80616D595
:10270000F00614D521686FF01000086108202077CA
:102710002068C06910F4407F204602D0FFF79EFF7A
:1027200004E000F034F8204600F032F82777E8079C
:1027300008D0F00706D021686FF00100086120463C
:1027400000F027F8280608D5300606D521686FF076
:10275000800008612046FFF725FF680608D570064F
:1027600006D521686FF040000861204600F018F897
:10277000A8060AD5B00608D521686FF020000861C8
:102780002046BDE8F041FFF70EBFBDE8F08170477D
:1027900070470068B0F1804F01D1FFF71BBB704755
:1027A0007047704770470000F8B501680446086834
:1027B000CA684B6910F00F0F4FF0000559D003F0B5
:1027C000010602F49077374365D0C10705D0D105E3
:1027D00003D5616C41F001016164410705D5D9075A
:1027E00003D0616C41F002016164810705D5D9070E
:1027F00003D0616C41F004016164010707D502F068
:102800002001314303D0616C41F008016164616CC7
:1028100000293AD0800604D5900602D5204600F063
:102820002AFE20684069616CC0F38010090700D45B
:1028300060B3204600F0F8FD20684069400621D5CD
:102840002068143050E8001F21F0400140E80012D9
:10285000002AF5D1E06BA8B16D494163E06BFEF74A
:10286000B9FF002811D0E06B416B01B0BDE8F0402A
:10287000084783060FD593060DD52046BDE8F840DE
:1028800000F0F9BD2046FFF78DFFF8BD2046FFF7A9
:1028900089FF6564F8BD266B2023012E7CD1C60616
:1028A0007AD5D60678D508684868009048694FF010
:1028B0000206400640D5E16B086840680004000C41
:1028C000E8D0A28D8242E5D9E085886920282DD004
:1028D00020680C3050E8001F21F4807140E800129D
:1028E000002AF5D12068143050E8001F21F00101C2
:1028F00040E80012002AF5D12068143050E8001F8B
:1029000021F0400140E80012002AF5D184F842305D
:10291000256320680C3050E8001F21F0100140E8CA
:102920000012002AF5D1E06BFEF730FF6663A08D40
:10293000E18D401A81B22AE0A08DE18D401A81B26A
:10294000E08D0028A6D00029A4D022680C3252E8DD
:10295000000F20F4907042E80007002FF5D12068A6
:10296000143050E8002F22F0010240E80027002F29
:10297000F5D184F84230256320680C3050E8002FF0
:1029800022F0100240E80023002BF5D166632046B8
:10299000FFF707FFF8BDFFE705062BD5150629D57C
:1029A00094F841002128F5D1A068B0F5805F01D1ED
:1029B0002069B0B1206A411C21622168007848601A
:1029C000E08C401E0004000CE084E3D12068C16864
:1029D00021F08001C1602068C16841F04001C16000
:1029E000D8E7206A0088C0F308004860206A801C8D
:1029F0002062E5E74006CDD55006CBD5CA68204613
:102A000022F04002CA6084F8413000F0E1F8C1E7EA
:102A10001934000870B5040004D094F84100002572
:102A200010B106E0012070BD84F84050204600F04F
:102A300023F8242084F841002068C16821F4005163
:102A4000C160204600F078FD2068016921F49041C2
:102A500001612068416921F02A0141612068C16853
:102A600041F40051C1606564202084F8410084F87D
:102A700042006563002070BD30B585B0002400942D
:102A80000194029403940068184988422CD1184894
:102A9000816941F480418161816901F4804104913F
:102AA000816941F0040181618069124D00F00400E8
:102AB00004904FF4007000900220019003200390D6
:102AC00069462846FEF7FCFE2815CDE90004694654
:102AD00028460294FEF7F4FE002205212520FFF788
:102AE00011FA2520FFF700FA05B030BD003801408B
:102AF000001002400008014090F84230202B01D025
:102B00000220704721B11AB10023036300F070BDA9
:102B10000120704700680449884204D1034901201C
:102B20004870FEF715BE70470038014024000020B1
:102B30002DE9F843044690F84100984616460D46A4
:102B4000202802D00220BDE8F88385B17EB10020A4
:102B50006064212084F84100FEF7ACFFA684814622
:102B6000E684A0682027B0F5805F02D003E0012052
:102B7000E9E7206910B12E4600250EE000260CE0A2
:102B80008021204600F04FFDA8B9C6B116F8010B10
:102B900021684860E08C401EE084E08C4B464FF09A
:102BA0000002CDF800800028EAD14FF04001204615
:102BB00000F039FD40B184F841700320C3E735F8D7
:102BC000020BC0F30800E3E784F841700020BAE785
:102BD0007047FEE701684A69D24352050FD46FF48B
:102BE00080624A61002140F8301F202242738173C5
:102BF000026942F004020261017301207047002063
:102C0000704700002DE9F843044600680D46DDE9F1
:102C1000089701689846164641F4807101604B465A
:102C200000224FF001112046009700F06BF848B1E8
:102C300020680068C00502D54FF4007020640320AE
:102C4000BDE8F883216805F0FE0008613B464A466E
:102C50001549204600F09EF888B9206841698069CE
:102C600000903A464946204600F0F2F848B1206C00
:102C7000042804D12068016841F40071016001203A
:102C8000DEE7F5B2B8F1010F09D02168300A08611A
:102C90003A464946204600F0DBF80028E7D1206894
:102CA00005610020CCE700000200010070B5164667
:102CB0000D4604461EE02046FFF78CFF08B10120B8
:102CC00070BD681C16D0FEF7F5FE801BA84200D828
:102CD00085B920684069C04340070BD5002044F8FF
:102CE000300F20216173A073216941F0200121611F
:102CF0002073E4E720684069C0434007DBD400202C
:102D000070BD00002DE9F047984617460D46044671
:102D1000C1F30746DDF820902AE000BFB8F1FF3F7D
:102D200026D0FEF7C7FEA0EB0901414502D8B8F155
:102D3000000F1DD12068012E16D0806925EA000001
:102D40000004000C12D00020B84211D1002044F839
:102D5000300F20216173A073216941F020012161AE
:102D600020730120BDE8F0874069E7E70120EBE729
:102D70002068012E0AD0806925EA00000004000CBA
:102D800006D00020B842C9D00020EBE74069F3E745
:102D90000120F7E72DE9F047984616460D46044610
:102DA0004FF000094FF0200AC1F3074723E02068E5
:102DB0004069C043400515D42068016841F40071A2
:102DC000016021686FF480604861C4F8309084F835
:102DD0003DA084F83E90216C41F00401216484F808
:102DE0003C9021E0701C06D0FEF764FEA0EB0800CA
:102DF000B04203D816B1012F1FD021E02068012F67
:102E000015D0806925EA00000004000C18D000BF2E
:102E100044F8309F84F80DA084F80E90216941F0A9
:102E20002001216184F80C900120BDE8F087406901
:102E300025EA00000004000CEAD12068406901E0A6
:102E40002068806925EA00000004000CAFD1ECE79F
:102E500070B516460D4604461EE02046FFF7BAFE42
:102E600008B1012070BD681C16D0FEF723FE801B40
:102E7000A84200D885B920684069C04300060BD538
:102E8000002044F8300F20216173A073216941F0C4
:102E9000200121612073E4E720684069C0430006F7
:102EA000DBD4002070BD000010B5A2B0002020903F
:102EB0002190012120A800F0D5FC1D4C1D4B0DF1E7
:102EC000700C60610FCB8CE80F0000211CA800F093
:102ED0003EFC184920611C2210316846FDF70BFBAF
:102EE0000021684600F0DDFC124920601C222C31D4
:102EF00007A8FDF700FB002107A800F0D2FC0D4950
:102F000060601C2248310EA8FDF7F5FA00210EA8DA
:102F100000F0C7FC0749A0601C22643115A8FDF72A
:102F2000EAFA002115A800F0BCFCE06022B010BD58
:102F30000C000020704F000870B586B00020009093
:102F40000190029003902B48816941F0100181614A
:102F5000816901F010010491816941F020018161D2
:102F6000816901F020010491816941F004018161CE
:102F7000816901F004010491816941F008018161D6
:102F800080691D4E00F008004FF4005404900022A8
:102F900021463046FEF789FD00940124022569464A
:102FA00030460194CDE90245FEF78AFC1348144EE1
:102FB000CDE90040694630460294FEF781FC114895
:102FC0000095CDE9010469463046FEF779FC002200
:102FD00005210620FEF796FF0620FEF785FF00225A
:102FE00006210720FEF78EFF0720FEF77DFF06B0C3
:102FF00070BD0000001002400010014000002110D0
:10300000000C0140000031100D4810B50B49016063
:103010000C49416000214FF480428160C0E90312F5
:1030200041618161C1610162FEF74AFD002803D060
:10303000BDE81040FEF7A8BB10BD000000540040E2
:10304000F4030020A0860100104810B50E4901606D
:103050004FF48271416000218160C1604FF40072C1
:103060000161C0E905121822C0E9072141628162AD
:103070000A21C162FFF704FA002803D0BDE810401E
:10308000FEF782BB10BD0000003001404804002064
:103090000C4810B50A4901604FF4E131416000214C
:1030A00081600C22C160C0E904128161C161FFF737
:1030B000B1FC002803D0BDE81040FEF765BB10BD91
:1030C00000380140A0040020FEE7FEE770B5074885
:1030D00000F00EF80546002404E0044800F017F85C
:1030E000641CA4B2AC42F8D370BD00009C00002068
:1030F000B0F80011B0F80201081A00F58070C1178D
:1031000000EB116121F0FF01401A80B27047B0F866
:103110000211425C491CC9B2A0F802111046704766
:10312000B0F80021815490F80011491CC9B2A0F8F0
:103130000011704710B502210848FEF7B1FC084C99
:10314000012807D0FEF7B6FC6168401A60600120D4
:10315000207010BDFEF7AEFC606010BD000C014099
:103160000000002010B5094C0020217800290CD067
:10317000606801F091FE01F043FE054A054B01F045
:1031800041FD01F00DFD0021217010BD0000002067
:103190009CC420B07268913F10B5084C01220421F4
:1031A0002046FEF782FC0A20FEF760FB2046002244
:1031B000BDE810400421FEF778BC0000000C01407F
:1031C000FEF748FA642000F0B6FAFBE710B550208D
:1031D00080F31188BFF34F8FBFF36F8F01F07CFB3B
:1031E00018B104494FF080500860002080F3118826
:1031F00010BD000004ED00E030B58FB02821684616
:10320000FDF7ABF914210AA8FDF7A7F9012108047D
:10321000CDE900100024029402250491CDE9075065
:103220004FF4E01009906846FEF79AFF08B172B6B5
:10323000FEE70F20CDE90A054FF48060CDE90C4090
:1032400002210AA80E94FEF78FFE002801D072B664
:10325000FEE70FB030BD70470148FFF700BA00002D
:10326000E8040020F0B50268194B1A4C1A4D4FF0D3
:103270008047984205D0B84203D0A04201D0A8426E
:1032800003D122F070064A683243984205D0B84212
:1032900003D0A04201D0A84203D122F44074CA68EE
:1032A00022434C6922F08002224302608A68C26293
:1032B0000A688262984201D1096901630121416172
:1032C0000169C90703D0016921F001010161F0BD65
:1032D000002C01400004004000080040124D134C37
:1032E0008AB04FF0FF366846FEF740F9FFF754FF0B
:1032F0009DF8000001F0D0FD01909DF8010001F063
:10330000CBFD0290FFF72EFF039001212846FEF728
:10331000C7FB8DF81000324601A9206900F074FA4D
:10332000642000F008FADEE7000C01400C000020E9
:10333000094C0A4D00262078012803D108A0FEF789
:10334000DBF926702878012802D1FFF7BFFE2E7026
:103350000A2000F0F0F9EEE724000020250000200C
:10336000414C41524D3A204649524520444554452E
:10337000435445442100000098B0DFF870904FF0AE
:10338000FF3A524615A8D9F8101000F0F3F9169C30
:10339000206801F061FDC1B20020FEF7CDF8606841
:1033A00001F05AFDC1B20120FEF7C6F8A06801F095
:1033B00027FD07468846606801F022FD05460E4657
:1033C000206801F01DFD0246207B0B46CDE90380FD
:1033D0008DE8E00006A105A8FCF752FF05A8FEF75E
:1033E0008BF90A2000F0A7F9CBE700000C000020C1
:1033F00054454D503A252E31662048554D493A25C1
:103400002E3166204449533A252E316620464C41E0
:103410004D453A256400000010B5406A0021C18581
:10342000C184FFF7BFF910BD01680C3151E8002FCE
:1034300022F4907241E80023002BF5D10168143189
:1034400051E8002F22F0010241E80023002BF5D1C2
:10345000016B012909D101680C3151E8002F22F0DC
:10346000100241E80023002BF5D1202180F8421002
:1034700000210163704708B590F84210222901D05D
:10348000022008BD82684FF480539A4201D101693D
:1034900021B1816A9A421BD04AB10AE00268816A6E
:1034A0005268C2F308020A80816A891C08E0026936
:1034B00072B10268526802F07F020A70816A491C88
:1034C0008162C18D491E0904090CC18503D01BE02E
:1034D00002685268F1E70168CA6822F02002CA60F7
:1034E0000168CA6822F48072CA6001684A6922F0E1
:1034F00001024A61202180F8421000214163026BE1
:10350000012A03D0FFF706FB002008BD0163016814
:103510000C3151E8002F22F0100241E80023002B6B
:10352000F5D101680A68D20602D50A684968009197
:10353000818DFFF736F9E7E770B504460068016949
:10354000E26821F44051114301612169A0680843F8
:10355000616908432168CA6841F20C639A430243D7
:10356000CA6020684169A26921F440711143416138
:103570001E492068884202D1FEF7BCFD01E0FEF73B
:10358000A9FD00EBC00101EB00126068642180001E
:10359000B2FBF0F3B3FBF1F36FF018067343B2FB29
:1035A000F0F5B2FBF0F605EB8305322303EB0515CE
:1035B000B5FBF1F5B6FBF1F605F0F00505EB0615E8
:1035C000B2FBF0F6B2FBF0F0B0FBF1F06FF01802D6
:1035D000504306EB800003EB0010B0FBF1F02168D4
:1035E00000F00F002844886070BD000000380140E2
:1035F00081628285C28500214164222180F84210C7
:10360000016921B10168CA6842F48072CA60016828
:103610004A6942F001024A610068C16841F0200134
:10362000C160002070472DE9F843984617460D46C3
:103630000446089E24E0701C22D0FEF73BFAA0EB63
:103640000800B0421AD8CEB12068C168490717D522
:10365000802D15D0402D13D00168C94309070FD420
:1036600001680025406800902046FFF7DDFE082035
:10367000606484F840500120BDE8F8830320FBE734
:103680002068006835EA000004D00020B842D2D09B
:103690000020F1E70120F9E70148FFF785B80000B5
:1036A000A0040020FEE7490050EAC12018BF042012
:1036B0004A0D18BF40F0010040F2FF72B2EB515FBB
:1036C00008BF40F00200012808BF05207047090725
:1036D000090E002804DB00F1E02080F80014704798
:1036E00000F00F0000F1E02080F8141D7047303822
:1036F0000A2801D20120704700207047EFF30580AF
:10370000002800D001207047FEF76CFBFFF774FD26
:10371000FFF712FCFFF778FCFFF796FCFFF7B8FC09
:10372000FFF7C2FB00F00EF8FEE7014600208429F7
:1037300000D0C81C704710B500B9012000F08EFC05
:10374000002010BD10B500F0D5FC002010BD38B52C
:10375000D0E9011204683AB1C3682BB1002000908F
:10376000204600F0A8FD38BD2046BDE838400022C4
:1037700000F080BD2DE9FF410D004FF00006CDE9BE
:10378000016507461ED000240396501C1FD002B1CD
:103790001446FFF7B3FF69464FF01008E8B103AADB
:1037A0002846091D00F0AAFF012813D000960398AF
:1037B000E8B114494FF080500860BFF34F8FBFF35A
:1037C0006F8F14E0802031462A46009011E04FF0C0
:1037D000FF34DEE7CDF80080E9E722462846091DE0
:1037E00000F0F0FE012808D054B1402000909DE880
:1037F000070087E80700BDE8FF81CDF80080F6E705
:103800000020F3E704ED00E037B5054682B0002064
:103810000090140000D10124FFF770FF4FF0000367
:1038200088B16A4603A9284600F06CFE012811D130
:10383000009890B10A494FF080500860BFF34F8F55
:10384000BFF36F8F09E0224603A9284600F0AAFDC6
:10385000012802D0FF2005B030BD0020FBE70000AA
:1038600004ED00E038B543684BB1012909D10320CC
:10387000002200901146012000F01DFD38BD0129F5
:1038800001D0002038BD03220021012000F0F2FC0D
:10389000040004D000231A46194600F083FD204698
:1038A00038BD7FB50D4604464169B0F9080081B1C5
:1038B000A16971B1FFF739FFD4E905128DE807005E
:1038C000D4E900102B46226900F0CDFF039004B02C
:1038D00070BDFFF72AFF03A9CDE90001208A2B461E
:1038E00082B2D4E9001000F091FF012801D000203D
:1038F000EDE70398EBE700002DE9F041184C0F4687
:103900000546E6682068001D00F0B6FA38B9206860
:1039100090F82C1001208840216981432161681CA6
:1039200007D137B12168BDE8F0410E48091D00F00C
:10393000E7BA20683544B5424560216805D2A06BDE
:10394000BDE8F041091D00F0C3BA606B091D00F02D
:10395000BFFAA06A854200D2A562BDE8F0810000EE
:10396000340000200C0600202DE9F041054600F04F
:10397000D3FA2E4CA068401CA06020682C4F10B1D8
:10398000606940B32DE02560A068012829D1002698
:1039900006EB860007EB800000F08CFA761C072E01
:1039A000F6D323488C3000F085FA2148A03000F08F
:1039B00081FA1F48B43000F07DFA1D48C83000F08D
:1039C00079FA1B48DC3000F075FA19488C306063D6
:1039D0001430A06305E02068E96AC06A884200D814
:1039E0002560606A401C6062E96A012022698840A3
:1039F0001043206101EB810007EB8000291D00F0DE
:103A00007FFA00F0A9FA606900280CD02068E96A02
:103A1000C06A884207D207494FF080500860BFF360
:103A20004F8FBFF36F8FBDE8F0810000340000209E
:103A30003005002004ED00E030B4026C0B46002A93
:103A40000BD0C1681144C1608468A14201D30168F0
:103A5000C16030BC1846FCF709BD30BC70472DE989
:103A6000F041856B174604460026026C82B1C7B14F
:103A7000E068FCF7FBFCE168206C091AE160226851
:103A8000914202D2A168081AE060022F16D017E016
:103A90002068A8B9A06800F085FF06460020A06055
:103AA0000EE06068FCF7E2FC216C6068084460602E
:103AB000A168884204D32068606001E005B16D1EF2
:103AC0006D1CA5633046BDE8F08110B5044690F842
:103AD000510058B101280CD002280FD0502080F39B
:103AE0001188BFF34F8FBFF36F8FFEE7206B00F09D
:103AF00047FA2046BDE8104000F042BA10BD000071
:103B000010484FF40051420706D0C01D0D4920F067
:103B10000700411AC1F500510B4A00230144C2E9D4
:103B200000030839183A21F0070111604B600B605F
:103B30000B1AC0E9001393604FF0004053605061CE
:103B4000704700002006002088000020144E154C0D
:103B5000A6F1C8074FF08058DFF84C9012E000BF84
:103B600000F0DAF9F068C568281D00F085F9A06852
:103B7000401EA0606068401E606000F0EDF92846BD
:103B8000FFF7A3FF60680028EAD138680128F9D957
:103B9000C9F80080BFF34F8FBFF36F8FF2E70000CB
:103BA000F80500203400002004ED00E003460098F2
:103BB00029B10260C0E90F31012100F0AFBB006004
:103BC000F8E72DE9F0479A46DDE9098481466FF070
:103BD0000303206B03EB82021044089E20F00707CA
:103BE000780707D0502080F31188BFF34F8FBFF3C1
:103BF0006F8FFEE7002561B1002023180A5C83F86F
:103C000034200A5C12B1401C1028F6D384F84350CB
:103C100001E084F83450072E00D30626E662C4E99A
:103C20001165201D00F051F904F1180000F04DF964
:103C30002461C6F107006462A061E56484F8505015
:103C400052464946384600F005F92060B8F1000FA9
:103C500001D0C8F80040BDE8F087000030B5114938
:103C600000E011460A688242FBD34B685C1884422C
:103C700003D1406818444860084643681C189442C1
:103C800009D1084C183C2468A24209D052681A4451
:103C900042600A6812680260814200D0086030BD4C
:103CA0000460F9E78800002010B5044600F034F9FC
:103CB000A06B28B15FF0000400F04EF9204610BD63
:103CC0000124F9E70648416B096829B1416BC968CD
:103CD000C9684968816270474FF0FF31FAE7000018
:103CE0003400002008484068401C4FF0500080F32A
:103CF000118804D0BFF34F8FBFF36F8FFEE7BFF380
:103D00004F8FBFF36F8FFEE7900000202DE9F04149
:103D1000044600F001F994F9455004F1240609E045
:103D2000606A48B1304600F089FE08B100F0C4F97D
:103D30006D1E6DB2002DF3DC4FF0FF3684F8456048
:103D400000F00AF900F0E8F894F9445004F1100783
:103D500009E0206948B1384600F070FE08B100F073
:103D6000ABF96D1E6DB2002DF3DC84F84460BDE844
:103D7000F04100F0F1B800002DE9F04105460027C0
:103D800000F0EEF9324E306808B9FFF7B9FE7069FD
:103D900005424ED1C5B3083568070ED005F00700BF
:103DA000C0F108000544680707D0502080F311884F
:103DB000BFF34F8FBFF36F8FFEE72DB3706885425F
:103DC00037D82348183001460C6801E020460C46DD
:103DD0006168A94202D221680029F7D131688C427A
:103DE00027D007682168016060680837411B1029E7
:103DF0000FD96019420708D0502080F31188BFF313
:103E00004F8FBFF36F8FFEE713E041606560FFF7F0
:103E100025FF61687068401A7060B268904200D2F5
:103E2000B060706901430020C4E90001F068401CE3
:103E3000F06000F03DFE780707D0502080F3118835
:103E4000BFF34F8FBFF36F8FFEE73846BDE8F081B9
:103E50007000002010B5031F4FF080741C601B1F02
:103E600021F001011960191F024B0B601439403811
:103E70000A6010BDE53C0008D0E9013201699A6092
:103E8000D0E901235A604A68824201D182684A60BF
:103E9000002202610868401E086008687047000040
:103EA000034B036003F154000860802010607047EA
:103EB000A001002000F108014FF0FF32C0E901121B
:103EC000C1600161002101607047002101617047FC
:103ED00030B50B685A1C02D000F1080202E00269FA
:103EE00004E02246546825689D42FAD953684B6025
:103EF00099608A60516008610168491C016030BDA9
:103F000042684A6093688B60936859609160086169
:103F10000168491C01607047502080F31188BFF38D
:103F20004F8FBFF36F8F0A494868401C48600128D3
:103F30000CD10848006810F0FF0F07D0502080F324
:103F40001188BFF34F8FBFF36F8FFEE770470000FC
:103F50009000002004ED00E00849486828B1401EA8
:103F6000486001D180F311887047502080F3118898
:103F7000BFF34F8FBFF36F8FFEE70000900000206C
:103F800070B500282AD0164DA0F108046068696950
:103F9000084207D1502080F31188BFF34F8FBFF341
:103FA0006F8FFEE722683AB1502080F31188BFF38B
:103FB0004F8FBFF36F8FFEE78843606000F0D0F84B
:103FC00060686968084468602046FFF747FE286912
:103FD000401C2861BDE8704000F06ABD70BD000063
:103FE000700000204FF0E02000210161816105494F
:103FF0004FF47A720968B1FBF2F1491E4161072161
:10400000016170470800002010B5FCF715F911494F
:1040100010280ED300F1E02090F8F0030A789042C7
:1040200007D2502080F31188BFF34F8FBFF36F8FFB
:10403000FEE709480068896800F4E060884207D913
:10404000502080F31188BFF34F8FBFF36F8FFEE7CF
:1040500010BD0000900000200CED00E010B5020043
:1040600014D00F48006B38B1502080F31188BFF393
:104070004F8FBFF36F8FFEE700F072F800211046FC
:10408000FFF73AFC00F014FD002807D105494FF076
:1040900080500860BFF34F8FBFF36F8F10BD0000DB
:1040A0003400002004ED00E002490A6A0260C96899
:1040B000416070473400002001490120C861704709
:1040C0003400002010B50C4650B109490968183178
:1040D000FFF7FEFE2046BDE810400121FFF70CBCB3
:1040E000502080F31188BFF34F8FBFF36F8FFEE72F
:1040F0003400002010B586B00024039405AA04A95A
:1041000003A80494FFF7CCFEDDE903010094CDE998
:10411000011000230EA11048059A00F0A4FB0F49DE
:104120000028C86211D0502080F31188BFF34F8F50
:10413000BFF36F8F4FF0FF30886201204861CC6081
:1041400006B0BDE8104000F041B806B010BD000058
:1041500049444C45000000004D3B0008340000205D
:104160000248016B491C01637047000034000020C5
:104170001448016B11B10121C16170470021C16177
:104180000169B1FA81F1C1F11F0101EB81020E4910
:1041900051F822306BB101EB820101F108034A684A
:1041A00052684A609A4201D152684A60D1680160FF
:1041B0007047502080F31188BFF34F8FBFF36F8F8C
:1041C000FEE7000034000020300500201CB5264921
:1041D00008780190FF20087008788DF800009DF89D
:1041E00000009DF8002000F0F000904207D0502021
:1041F00080F31188BFF34F8FBFF36F8FFEE79DF8F9
:1042000000001A4C00F0500020700720A06005E06C
:104210009DF8002052008DF80020401E9DF80020DF
:104220001206F5D4A060032807D0502080F311882F
:10423000BFF34F8FBFF36F8FFEE74FF44070A06066
:10424000019808700A48016841F470010160016832
:1042500041F070410160FFF7C5FE00206060FBF790
:10426000B5FF00201CBD000000E400E0900000202D
:1042700020ED00E0F8B517460E46050013D005FB0B
:1042800006F04830FFF778FD04000AD0002084F8DB
:10429000460004F148023B46314628460094FFF7A9
:1042A00085FC2046F8BD502080F31188BFF34F8F66
:1042B000BFF36F8FFEE738B5049D18B153B1CAB193
:1042C00081B120E0502080F31188BFF34F8FBFF3FE
:1042D0006F8FFEE7502080F31188BFF34F8FBFF33D
:1042E0006F8FFEE7502080F31188BFF34F8FBFF32D
:1042F0006F8FFEE739B1502080F31188BFF34F8FE5
:10430000BFF36F8FFEE748241C46012384F8463034
:104310002B460094FFF74AFC204638BD70B50D4689
:10432000040025D0FFF7F8FDD4E90F20216802FB37
:104330000011A1600021A163216861600A46D4E9EF
:104340000F01401E00FB0121E16021464FF0FF30CC
:1043500001F8440F487004F110008DB1FFF7AAFD79
:1043600004F12400FFF7A6FDFFF7F6FD012070BD64
:10437000502080F31188BFF34F8FBFF36F8FFEE79C
:1043800021690029F0D000F059FB0028ECD0044945
:104390004FF080500860BFF34F8FBFF36F8FE3E79C
:1043A00004ED00E02DE9FF4782B01D468A464FF03C
:1043B0000008040003D0BAF1000F08D011E050202B
:1043C00080F31188BFF34F8FBFF36F8FFEE7206C30
:1043D00038B1502080F31188BFF34F8FBFF36F8F38
:1043E000FEE7022D0AD1E06B012807D0502080F3B0
:1043F0001188BFF34F8FBFF36F8FFEE700F05EFAB7
:104400003F4F4FF000094FF0805648B9049838B13B
:10441000502080F31188BFF34F8FBFF36F8FFEE7FB
:10442000FFF77AFDA06BE16B884207D3022D05D020
:104430000498D0B1B8F1000F1AD01EE02A465146B8
:104440002046FFF70CFB616A19B104F1240000F06B
:10445000F5FA20B13E60BFF34F8FBFF36F8FFFF7C8
:104460007BFD012006B0BDE8F087FFF775FD22E077
:104470006846FFF719FE4FF00108FFF76DFDFFF7E3
:104480006FFEFFF749FD94F94400401C01D184F808
:10449000449094F94500401C01D184F84590FFF701
:1044A0005BFD04A9684600F077F930B12046FFF7BC
:1044B0002DFC00F0FDFA0020D4E7FFF72DFDA06BE6
:1044C000E16B884213D1FFF747FD04F11000049916
:1044D000FFF7F8FD2046FFF719FC00F0E9FA002885
:1044E0009ED13E60BFF34F8FBFF36F8F98E7FFF70A
:1044F00033FD2046FFF70AFC00F0DAFA90E70000EF
:1045000004ED00E02DE9F0471F469046894604007F
:1045100003D0B9F1000F08D011E0502080F31188CA
:10452000BFF34F8FBFF36F8FFEE7206C38B1502081
:1045300080F31188BFF34F8FBFF36F8FFEE7022F19
:104540000AD1E06B012807D0502080F31188BFF317
:104550004F8FBFF36F8FFEE7FFF756FD5020EFF34D
:10456000118680F31188BFF34F8FBFF36F8FA06B5D
:10457000E16B884206D3022F04D0002086F3118815
:10458000BDE8F08794F94550A06B3A46494620466D
:10459000FFF765FA681C04D06D1C84F845500120B3
:1045A000ECE7606A0028FAD004F1240000F046FA33
:1045B0000028F4D0B8F1000FF1D00121C8F80010A4
:1045C000EDE700002DE9F747002683B08A46040096
:1045D00003D0BAF1000F08D011E0502080F3118809
:1045E000BFF34F8FBFF36F8FFEE7206C38B15020C1
:1045F00080F31188BFF34F8FBFF36F8FFEE700F09A
:104600005DF9DFF8F4804FF000094FF0805748B9AA
:10461000059838B1502080F31188BFF34F8FBFF356
:104620006F8FFEE7FFF778FCA56BC5B151462046BA
:10463000FFF702FA6D1EA563206950B104F1100066
:1046400000F0FCF928B1C8F80070BFF34F8FBFF33A
:104650006F8FFFF781FC012006B0BDE8F087059859
:1046600008B11EB106E0FFF777FC27E06846FFF7C8
:104670001BFD0126FFF770FCFFF772FDFFF74CFCF6
:1046800094F94400401C01D184F8449094F9450009
:10469000401C01D184F84590FFF75EFC05A96846EF
:1046A00000F07AF8002820460AD0FFF72FFB00F030
:1046B000FFF92046FFF7F8FA0028B3D00020CBE737
:1046C000FFF7F2FA90B104F124000599FFF7FAFC24
:1046D0002046FFF71BFB00F0EBF90028A2D1C8F839
:1046E0000070BFF34F8FBFF36F8F9BE72046FFF73C
:1046F0000DFB00F0DDF995E704ED00E02DE9F04752
:1047000090468946040003D0B9F1000F08D011E0AB
:10471000502080F31188BFF34F8FBFF36F8FFEE7F8
:10472000206C38B1502080F31188BFF34F8FBFF356
:104730006F8FFEE7FFF768FC5020EFF3118680F3E0
:104740001188BFF34F8FBFF36F8FA76BF7B194F949
:10475000445049462046FFF76FF97F1EA763681C47
:1047600004D06D1C84F84450012010E0206900281A
:10477000FAD004F1100000F061F90028F4D0B8F18B
:10478000000FF1D00121C8F80010EDE7002086F3FA
:104790001188BDE8F08700002DE9F0410C460500C6
:1047A00011D0C4B1FFF7B8FB174BDA686E68206808
:1047B000911B471C17D02F681B6A9F4219D0964245
:1047C00017D8012410E0502080F31188BFF34F8FD9
:1047D000BFF36F8FFEE7502080F31188BFF34F8F38
:1047E000BFF36F8FFEE70024FFF7B6FB2046BDE85E
:1047F000F081884205D9401A20602846FFF754FC12
:10480000F1E700202060DCE7340000202DE9FF5FA5
:104810008346DDE90E87994616468A469000FFF7E3
:10482000ABFA05001CD05420FFF7A6FA040014D000
:104830000020256384F85100CDE90240CDE90087CE
:104840004B46324651465846FFF7BBF92046FFF724
:104850008BF8012004B0BDE8F09F2846FFF790FBDD
:104860004FF0FF30F6E7F0B585B0DDE90B640A9D47
:10487000A6B1DCB1542700972663022684F8516064
:10488000002604AFCDE90246CDE90057FFF799F9BC
:104890002046FFF769F8049805B0F0BD502080F37A
:1048A0001188BFF34F8FBFF36F8FFEE7502080F367
:1048B0001188BFF34F8FBFF36F8FFEE70548416943
:1048C00019B1006B18B10020704701207047022019
:1048D00070470000340000202DE9F0412F4C0026E5
:1048E000206B28B1A069401CA0613046BDE8F08172
:1048F000E5686D1CE56013D1606B006838B150202D
:1049000080F31188BFF34F8FBFF36F8FFEE7606BAB
:10491000A16B6163A063206A401C2062FFF7D2F99B
:10492000A06ADFF87C80854209D3606B0068A0B183
:10493000606BC068C7687868854211D2A062206841
:10494000C06A00EB800158F82100012800D9012637
:10495000E0690028C9D00126C7E74FF0FF30EDE736
:10496000381DFFF789FAB86A18B107F11800FFF788
:1049700083FAF96A0120226988401043206101EB23
:10498000810108EB8100391DFFF7BAFAF86A216846
:10499000C96A8842C9D30126C7E700003400002055
:1049A0003005002070B504004FF0000140D0214DCB
:1049B0002868844207D0502080F31188BFF34F8FBE
:1049C000BFF36F8FFEE7A06C38B1401EA064636C2C
:1049D000E26A9A422CD040B12AE0502080F311883C
:1049E000BFF34F8FBFF36F8FFEE7201DFFF744FA31
:1049F000114A012150B9E06A00EB800352F82330DC
:104A000023B92B6901FA00F083432B61606CE062EB
:104A1000C0F10700A061E06A2B6981401943296158
:104A200000EB800002EB8000211DFFF769FA0121F5
:104A3000084670BD34000020300500202DE9F0410B
:104A4000C068C468ACB104F118000746FFF714FA57
:104A5000154D286B0126A0B139461448FFF750FACE
:104A6000E06A2968C96A88421CD90120EE61BDE864
:104A7000F081502080F31188BFF34F8FBFF36F8F09
:104A8000FEE7201DFFF7F8F9E16A2A6906FA01F04E
:104A90001043286101EB81000449B43901EB800027
:104AA000211DDBE70020E2E734000020E4050020C0
:104AB0002DE9F0472C4D00242746286B38B1FFF72D
:104AC0002BFA286B401E2863286B40B146E050202B
:104AD00080F31188BFF34F8FBFF36F8FFEE7A96894
:104AE000224E0120D1B3A6F1B40980463068E8B166
:104AF000F068C46804F11800FFF7BEF9201DFFF745
:104B0000BBF9E06A2A6908FA00F11143296100EB58
:104B1000800109EB8100211DFFF7F2F9E06A2968A5
:104B2000C96A8842E2D3C5F81C80DFE70CB1FFF701
:104B3000C9F8AC6944B14646FFF7CEFE00B1EE615C
:104B4000641EF9D10020A861E86938B1084901273D
:104B500038070860BFF34F8FBFF36F8FFFF7FCF983
:104B60003846BDE8F087000034000020E40500204E
:104B700004ED00E010B500290AD00878002807D01D
:104B800005487844FCF7C8F8002801D0002010BD83
:104B90000248784410BD00006E0500006605000064
:104BA00021F00042A2F16052B2F5801F01F00043F3
:104BB00028BFD2F17F6C0BD95FEA001C43EAC20226
:104BC00042EB507018BF704728BF20F001007047BB
:104BD000B2F5801FBCBF184670474FEA410C1CF568
:104BE000001F02D2084600F0B0B970B500F0B4F86A
:104BF00000000089FFF7F6BF4FF00040A0F58000ED
:104C000070470000DFF848C170B51CEA111E1EBFD6
:104C10001CEA13159EEA0C0F95EA0C0F00F06F804A
:104C200081EA030423EA4C134EEAD47E21EA4C11B4
:104C300041F4801143F48013AE44A1FB024CA0FB6D
:104C40000365AEF17F7E361955EB0C05A1FB034CD5
:104C50004CF10003A0FB021C16EB0C06654153F15E
:104C60000003094218BF46F0010613F4007F0BD180
:104C70004FEA03314FEA0530340341EA155140EA67
:104C800016506FF003020AE04FEAC3214FEAC52035
:104C9000F40241EA555140EA56506FF0020202EB2D
:104CA0002E4201EB025585EACE710AD05FEA440C30
:104CB00018BF24F0004450F1000041F1000120EA47
:104CC000D47040F2FE7C624500D270BDA84214BF91
:104CD0004FF080444FF04044002E08BF0024BEF146
:104CE000806FA8BFA1F1C041BDE8704080F2828012
:104CF0004FF0000001F1C04101F0004170479EEA11
:104D00000C0F0CEA131518BF95EA0C0F06D04FF0E4
:104D1000000081EA030E0EF0004170BD00F01CF8A7
:104D20008900013E00F007B800F009B84FEA430CD3
:104D30005FEA5C5C08D081EA030100F05BB84FEAEF
:104D4000410C5FEA5C5CF6D14FF00000014970470E
:104D50000000FF070000F87F0EF1020E2EF0030E98
:104D60005EF8046B364205D4012A43EB030515F5C2
:104D7000001F12D8012841EB010C1CF5001F0CD8B4
:104D80000ED14FEAD17C15F5001F0CEB4C0C0CF149
:104D9000020C08BF4CEBD37C04E04FF0080C01E0A0
:104DA0004FEAD37C0CEB4C0526FA05F606F0070615
:104DB000B6F1040C06D20EEB860CBDE870404CF048
:104DC000010C6047DFE80CF0090B02024FF00041D4
:104DD0004FF00000A1F5002170BD194610460128D2
:104DE00051EB010418BFD4F5001484BF002001F07A
:104DF000004170BD0808A0F500114FEA310170476D
:104E000043004FEAD30C4FEA3C0C43401FBF40071E
:104E10000CF1605113F0FE4F70471CF0006F03D18E
:104E200000200CF0004170470CF0004343EA507042
:104E300010B540EACC0000F042F800BF000000923C
:104E40004FEA0001FFF7D6BF4FF000414FF00000DE
:104E5000A1F5002170470000C10DD1F19E0206DBD3
:104E60004FEA002343F0004323FA02F07047004268
:104E700007D54FEA4001B1F1FE4F02D24FF00000DA
:104E8000704710B500F01BF849922480002070474D
:104E90006FEA200070470000B0FA80F310FA03F2C6
:104EA000C3F19D030AD0D90501EB1220530638BF88
:104EB000704700F1010008BF20F0010070470EF1BB
:104EC000020E2EF0030E5EF8044B244204D44FEA87
:104ED0004102B2F17F4F11D84FEA4003B3F17F4F47
:104EE0000CD80ED14FEAD07CB2F17F4F0CEB4C0CBA
:104EF0000CF1020C08BF4CEBD17C04E04FF0080C25
:104F000001E04FEAD17C0CEB4C0324FA03F404F0EB
:104F10000704B4F1040C06D20EEB840CBDE810407B
:104F20004CF0010C6047DFE80CF0070802024FF07C
:104F30000040A0F5800010BD0846420018BFD2F125
:104F4000807288BF00F0004010BDFF2141EAD050C0
:104F5000C0057047FBF75DBC0000000000000000CA
:104F6000010203040607080900000000010203040F
:104F70000A00000004000000000000000000000023
:104F8000B4500008C131000800000000000000001B
:104F9000800000000000000000000000C050000879
:104FA000DD32000802000000000000008000000068
:104FB000000000000000000098500008793300084D
:104FC0000000000000000000800000000000000061
:104FD00000000000A450000831330008FEFF00006C
:104FE0000000000080000000000000000000000041
:104FF000010202030405060708090A0B0C0D0E0F37
:105000001010000002400000000000A0000000009E
:1050100005400000000000C8000000000C40000037
:105020000000409C00000000194000000020BCBEB1
:105030000000000034400000BFC91B8E00000004C7
:10504000B5400000504BCFD06607E2CF0100000012
:105050006C4100003E8251AADFEEA734010000003F
:10506000D9420000DCB5A0E23A301F97FFFFFFFFF6
:10507000B4450000FD25A0C8E9A3C14FFFFFFFFF15
:10508000FF3F00000000008000000000FF3F000024
:1050900000000080000000005461736B5F53656E78
:1050A000640000005461736B5F52656365697665E7
:1050B0000000000064656661756C745461736B0078
:1050C0005461736B5F436F6C6C6563740000000028
:1050D0000C510008000000209C000000280100087E
:1050E000A85100089C000020E42B000044010008A7
:1050F0001C00000043000000F8FFFFFF0C00000050
:105100000E0000000F0000002E0000000000000054
:105110000000000000127A00000000000000000003
:10512000000000000000000000000000000000007F
:10513000000000000100000010000000000000005E
:10514000000000000000000000000000000000005F
:10515000000000000000000000000000000000004F
:10516000000000000000000000000000000000003F
:10517000000000000000000000000000000000002F
:10518000000000000000000000000000000000001F
:10519000000000000000000000000000000000000F
:0851A000AAAAAAAA000000005F
:04000005080000ED02
:00000001FF
